:100000000C94D3000C94FB000C94FB000C94FB00AC
:100010000C94FB000C94FB000C94FB000C94FB0074
:100020000C94FB000C94FB000C9460140C94CF1403
:100030000C94FB000C94FB000C94FB000C94FB0054
:100040000C94FB000C94FB000C94FB000C94FB0044
:100050000C94FB000C94FB000C94FB000C94161405
:100060000C94FB000C94FB000C94FB000C94FB0024
:100070000C94FB000C94FB000C94FB000C94FB0014
:100080000C94FB000C94FB000C94FB000C94FB0004
:100090000C9401170C94FB000C94FB000C94FB00D7
:1000A0000C94FB000C94FB000C94FB00000000007F
:1000B0002300260029002C002F00080B000202025A
:1000C00000000904000001020200000524001001E4
:1000D0000524010101042402060524060001070588
:1000E000810310004009040100020A000000070516
:1000F00002024000000705830240000004030904D7
:1001000012010002EF0201409A2304800001010263
:1001100003014164616672756974004164616672CD
:1001200075697420466C6F72610000000000240045
:1001300027002A002D0030000000000025002800C4
:100140002B002E0031000404040404030405020201
:100150000202040302020202060606060606040460
:1001600002020204040408020110408040102040F2
:10017000804080080204018040201002011080109D
:10018000204040200000000200090F00000304018D
:10019000000C000000000000000000000000000053
:1001A00000000000531811241FBECFEFDAE0DEBFBD
:1001B000CDBF14E0A0E0B1E0EEEDF6E402C00590A2
:1001C0000D92AE33B107D9F726E0AEE3B4E001C03B
:1001D0001D92A337B207E1F710E0C3EDD0E004C0F1
:1001E0002197FE010E94271DC23DD107C9F70E9439
:1001F000B0180C946D230C940000E0919B05F091D5
:100200009C05ABE9B5E025E0EB39F20741F0308120
:1002100021818E179F0761F53C9311962C93E091F5
:100220009B05F0919C052081318145E02B393407F5
:1002300019F591838083FC01318320838285938526
:10024000A485B58540919F055091A0056091A105B9
:100250007091A20584179507A607B70740F480930D
:100260009F059093A005A093A105B093A2050895C2
:10027000DF01E32FF22FC7CFF901D5CFE7EFF5E08C
:10028000168E158E10A2178E11A212A213A214A2FE
:1002900015A216A217A210A611A612A613A614A69E
:1002A000148E80E095E0A0E0B0E080839183A2838B
:1002B000B38385E090E0A0E0B0E084839583A683DB
:1002C000B78382E090E0A0E0B0E080879187A287CA
:1002D000B38714868FEF858716861786108A118A52
:1002E000128A138A148A158A168A178A108E118E1A
:1002F000128E138E81E00895FC019081909528E084
:1003000030E081E397FF03C0990F982701C0990F50
:1003100021503109B9F78181892728E030E091E344
:1003200087FF03C0880F892701C0880F215031093A
:10033000B9F7089508950895FC0180911C0588235C
:1003400011F13FB7F89482E08093E9002091F20028
:10035000822F90E01816190614F481E090E08823AB
:1003600039F0289A44E640931B054091F100408300
:10037000222339F02091F200211103C02BE62093B3
:10038000E8003FBF08958FEF9FEF08952FB7F894CF
:1003900083E08093E9009091E800892F807295FFB7
:1003A00004C09091F20080E4891B2FBF08958091D2
:1003B000130581110DC082E080930F0584E08093C6
:1003C0001005109212051092110581E0809313051B
:1003D0008FE095E0089581508F3008F047C0E82FF6
:1003E000F0E0EB50FE4F0C94271D1202160204029F
:1003F0000A020E0236023602360219021F022302D8
:1004000027022D0236023102809180008F7780937F
:1004100080000895809180008F7DF9CF80918000C9
:10042000877FF5CF84B58F7784BD089584B58F7DA0
:10043000FBCF809190008F778093900008958091FA
:1004400090008F7DF9CF80919000877FF5CF8091CC
:10045000C0008F778093C00008958091C0008F7D89
:10046000F9CF8091C200877F8093C20008951F93C7
:10047000CF93DF93282F30E0F901EC57FE4F8491A2
:10048000F901EB59FE4FD491F901EA5BFE4FC4919B
:10049000CC23A9F0162F81110E94EB01EC2FF0E084
:1004A000EE0FFF1FE85CFE4FA591B4918FB7F89453
:1004B000EC91111108C0D095DE23DC938FBFDF9142
:1004C000CF911F910895DE2BF8CFCF93DF9390E06B
:1004D000FC01EB59FE4F24918A5B9E4FFC018491F5
:1004E0008823C9F090E0880F991FFC01E65DFE4F5C
:1004F000A591B491FC01E85CFE4FC591D4916111C6
:100500000DC09FB7F8948C91209582238C9388819D
:10051000282328839FBFDF91CF910895623051F443
:100520009FB7F8943C91822F809583238C93E88128
:100530002E2BEFCF8FB7F894EC912E2B2C938FBFEF
:10054000EACF1F93CF93DF93182FEB0161E00E9456
:100550006502209739F460E0812FDF91CF911F91E0
:100560000C943702CF3FD10511F461E0F5CFE12FB4
:10057000F0E0EC57FE4FE491E150EF3008F07FC01F
:10058000F0E0EB53FD4F0C94271DD402DC02E10296
:10059000EB02F5023F033F033F03FF02090313038E
:1005A0001D032A033F03320384B5806884BDC7BDA1
:1005B000DF91CF911F91089584B5806284BDC8BD3D
:1005C000F7CF80918000806880938000D09389006D
:1005D000C0938800EDCF809180008062809380007E
:1005E000D0938B00C0938A00E3CF80918000886015
:1005F00080938000D0938D00C0938C00D9CF8091E0
:100600009000806880939000D0939900C0939800E8
:10061000CFCF80919000806280939000D0939B0018
:10062000C0939A00C5CF809190008860809390001D
:10063000D0939D00C0939C00BBCF8091C000806888
:100640008093C0008091C0008F7B8093C000C093D6
:10065000CF00AECF8091C00080628093C000C09375
:10066000D000A6CF8091C20088608093C2008091A4
:10067000C2008B7F8093C200C093D20099CFC03854
:10068000D1050CF072CF67CF3FB7F89480910B057E
:1006900090910C05A0910D05B0910E0526B5A89B73
:1006A00005C02F3F19F00196A11DB11D3FBFBA2F04
:1006B000A92F982F8827BC01CD01620F711D811DC4
:1006C000911D43E0660F771F881F991F4A95D1F748
:1006D00008958F929F92AF92BF92CF92DF92EF9246
:1006E000FF924B015C010E9444036B017C010E945C
:1006F00044036C197D098E099F09683E734081058A
:100700009105A8F321E0821A9108A108B10888EEAA
:10071000C80E83E0D81EE11CF11C81149104A104D1
:10072000B10429F7FF90EF90DF90CF90BF90AF908A
:100730009F908F9008952FB7F8946091070570915E
:1007400008058091090590910A052FBF08950F9320
:100750001F93072E000C880B990B03ED14E0012E5C
:10076000000C220B330B601B710B820B930B2FE0E1
:1007700030E040E050E00E94DA1CE22FF0E0EE0FA3
:10078000FF1FE050FB4F0190F081E02D09951F9174
:100790000F91089540919F045091A00420919D04D1
:1007A00030919E0442175307B4F49091E80095707D
:1007B000E1F39091E80092FD19C08093F1008091DF
:1007C0009F049091A00401968F739927892B19F4A7
:1007D0008EEF8093E80080919F049091A004019691
:1007E0009093A00480939F0481E0089580E0089591
:1007F000DF92EF92FF920F931F93CF93DF93D82E48
:100800008A01EB017B01E40EF51ECE15DF0559F0E0
:10081000D7FE12C0FE0184910E94CA032196811165
:10082000F4CF0FEF1FEFC801DF91CF911F910F9110
:10083000FF90EF90DF9008958881EECF0F931F9384
:10084000CF93DF931F92CDB7DEB782E0898342E476
:1008500050E06AEB70E080E80E94F8030E94D70144
:10086000DC0112960D911C910115110589F0D8013A
:10087000ED91FC910280F381E02DBE016F5F7F4F0F
:10088000C801099597FD04C0F80100851185ECCFDA
:1008900089810F90DF91CF911F910F910895615041
:1008A00030F02091F100FC0120830196F8CF289AC6
:1008B00084E680931B0508958F929F92AF92BF921A
:1008C000CF92DF92EF92FF920F931F93CF93DF931C
:1008D0006C017B018A0180910B01882309F45CC0C3
:1008E00080911C05882309F457C08091A30480FFE0
:1008F00005C08091E00082608093E000E801B12CA7
:100900008AEFA82E93E0892E2AE3922E209711F4E5
:10091000BB20D9F10E94C60181110AC0AA94AA2065
:10092000D9F161E070E080E090E00E946903EECFD1
:100930008C171D0611F00CF08C2F9FB7F894809245
:10094000E9002091E80025FD02C09FBFDFCF282FDE
:1009500030E0C21BD30BF701815020F0419140934E
:10096000F100FACFE20EF31EBB2021F09092E800D6
:10097000B12CEBCF8091E80085FDE7CF9092E800A5
:10098000BB24B394209709F3F3CF5D9A84E6809358
:10099000A204101611063CF081E090E0F60193836A
:1009A000828310E000E0C801DF91CF911F910F9189
:1009B000FF90EF90DF90CF90BF90AF909F908F907F
:1009C0000895CF93DF931F92CDB7DEB76983DC0123
:1009D000ED91FC910280F381E02D41E050E0BE01F9
:1009E0006F5F7F4F09950F90DF91CF91089583E05E
:1009F0008093E9008091F200882319F08AE38093C4
:100A0000E80008950E94C60190E00895CF93DF9317
:100A10001F92CDB7DEB7FC018485958597FD08C090
:100A20002FEF3FEF358724870F90DF91CF91089507
:100A3000CE0101960E949C01019719F4898190E0F2
:100A4000F3CF8FEF9FEFF0CF0F931F93CF93DF93F1
:100A50001F92CDB7DEB78C01FC018485958597FF89
:100A60000BC0CE0101960E949C01019771F489810F
:100A700090E0F80195878487F801848595850F902B
:100A8000DF91CF911F910F9108958FEF9FEFF1CFDD
:100A9000FC018485958597FD0BC09FB7F89482E093
:100AA0008093E9008091F2009FBF90E00196089545
:100AB0009FB7F89482E08093E9008091F2009FBF95
:100AC00090E008950E949B03CB01089520917A0441
:100AD000260F3327331F21323105ECF420916905AD
:100AE000FC0190E080E0243069F082E00895A0915C
:100AF0007A042191AC01465A5B4FA40FB52FB11D6A
:100B00002C930196861798F380917A04680F60936E
:100B10007A0480E0089581E008951092690581E0EB
:100B2000809368051092430561E082E00E943702DD
:100B300061E083E00E943702E9EBF0E080818E7F84
:100B4000808380818D7F808380E28093B80085E4FC
:100B50008093BC00089510922205109221051092F6
:100B60007005109292050E948D058AE991E090939C
:100B7000200580931F058BE991E090931E058093DB
:100B80001D050895CF93DF9391E090935904882336
:100B9000B9F0C091B800D091BA008091BC008A7BB6
:100BA0008093BC0060E082E00E94370260E083E056
:100BB0000E9437020E948D05D093BA00C093B800FE
:100BC000DF91CF9108958F929F92AF92BF92CF9273
:100BD000DF92EF92FF920F931F93CF93DF93D09109
:100BE0009205D13208F0D7C0182FC09191050E940C
:100BF00044036B017C018091690581116BC082E027
:100C000080936905109368058FEF809367051092B4
:100C10006605D0936505A1E7B5E0E5E4F5E080E081
:100C2000D81391C01092440580914405CC0FC82B75
:100C3000C093440580914305813009F088C010922B
:100C400043050E9444036B017C018091440580931D
:100C5000BB0080916B0590916C05A0916D05B091E2
:100C60006E05892B8A2B8B2BA1F00E9444030091E7
:100C70006B0510916C0520916D0530916E056C1916
:100C80007D098E099F09061717072807390708F4F9
:100C900042C08091BC0083FDD8CF85EC8093BC001E
:100CA0000E9444036B017C0180916905823009F444
:100CB00050C0809167058F3F09F46FC08091670530
:100CC000803209F46CC080916705803309F469C0F3
:100CD00084E026C080916B0590916C05A0916D0514
:100CE000B0916E05892B8A2B8B2B09F484CF0E943F
:100CF000440380906B0590906C05A0906D05B090BA
:100D00006E056C197D098E099F0986169706A8063F
:100D1000B90608F070CF80916A050E94C20585E08F
:100D2000109270051092920510926F05DF91CF918D
:100D30001F910F91FF90EF90DF90CF90BF90AF90F9
:100D40009F908F9008959D9191938F5F69CF85EECD
:100D5000A5CF80916B0590916C05A0916D05B09128
:100D60006E05892B8A2B8B2B09F49ECF0E9444039E
:100D700000916B0510916C0520916D0530916E0509
:100D80006C197D098E099F0906171707280739076F
:100D900008F08ACFC0CF81E0C3CF80E0C1CF82E02E
:100DA000BFCF83E0BDCFCF93DF93EC018B8188234E
:100DB000A1F0888191E090936F0580939105109246
:100DC00070051092920581E00E94E30591E0811187
:100DD00090E0892FDF91CF9108950E94AB0581E0CB
:100DE0008B83CE010E94D306982F8111E2CFF1CFE1
:100DF0000895E091220580912105E81730F4F0E094
:100E0000ED5DFA4F808190E008958FEF9FEF089598
:100E100090912205809121052FEF3FEF981748F41C
:100E2000E92FF0E0ED5DFA4F208130E09F5F909375
:100E30002205C90108958091210590912205891B01
:100E4000990B0895CF92DF92EF92FF920F931F9329
:100E5000CF93DF937C01CB018A0120916F05222380
:100E600089F0EB016B01C40ED51ECC15DD0569F0D0
:100E70006991D701ED91FC910190F081E02DC701BE
:100E80000995F3CF642F0E946605C801DF91CF91C9
:100E90001F910F91FF90EF90DF90CF900895CF9327
:100EA000DF931F92CDB7DEB7698320916F052223B0
:100EB000F9F020919205203258F021E030E0FC0159
:100EC0003383228390E080E00F90DF91CF910895EB
:100ED00080917005E82FF0E0EF58FA4F99819083E8
:100EE0008F5F809370058093920581E090E0ECCF56
:100EF00061E0CE0101960E946605F7CF90E080E0A8
:100F00000895E091CD04F091CE0450E040E0682FC8
:100F10008DEC94E00994CF93DF93EC0181E00E9483
:100F20008107D093CE04C093CD0480E0DF91CF91B0
:100F30000C948107662319F0623061F008951092D5
:100F4000D0041092CF0480EB94E09093CC04809373
:100F5000CB0408958091CB049091CC04892B21F48B
:100F60008BE398E00C948B0708958F929F92AF9239
:100F7000BF92CF92DF92EF92FF92CF9380902406A0
:100F800090902506A0902606B090270620E030E03D
:100F9000A901C501B4010E94C21BC1E0882321F14F
:100FA000C0902806D0902906E0902A06F0902B06E3
:100FB00020E030E040E451E4C501B4010E94C01DCE
:100FC0009B01AC01C701B6010E94D51E87FD0BC075
:100FD000C1E020E030E048EC52E4C701B6010E94D5
:100FE000C21B18160CF4C0E08C2FCF91FF90EF902D
:100FF000DF90CF90BF90AF909F908F900895613019
:1010000001F118F0623061F008951092D00410924E
:10101000CF0488E592E09093CC048093CB040895AC
:101020000E94B507882321F08BE398E00C948B078E
:101030008091CB049091CC04892B39F486E298E01E
:10104000F5CF1092CC041092CB040895662319F0CA
:10105000623041F0089581E090E09093D004809355
:10106000CF0408950E94B507882321F08BE398E010
:101070000C948B070895662319F0623031F00895BF
:101080001092D0041092CF0408950E94B5078111E8
:1010900004C08FEF97E00C948B070895CF93DF93F4
:1010A000DC01ED91FC911197E081EE0FEE0FEE0F58
:1010B0001296CD91DC9113979881990F990FE90FB2
:1010C0001696CD91DC91179798819E0F1496ED910D
:1010D000FC91E081EE0FE90FF0E0EE0FFF1FEE5EF6
:1010E000FE4F8081DF91CF9108952F923F924F92D2
:1010F0005F926F927F928F929F92AF92BF92CF92A8
:10110000DF92EF92FF920F931F93CF93DF935C01D7
:101110001B016A01F12CE12CD50114968D919C9153
:1011200086010E191F098017910708F48C01F5013B
:10113000D0810E9444032B013C01809169058111FB
:1011400072C0C02F013208F0C0E2F1E0F0936905EF
:1011500021E0C601801B910BE816F90608F420E097
:10116000209368058FEF80936705109266058C0FBA
:1011700080936505A1E0A093440580914405DD0FAF
:10118000D82BD093440580914305813009F090C05D
:10119000109243050E9444032B013C0180914405B9
:1011A0008093BB0080916B0590916C05A0916D05BB
:1011B000B0916E05892B8A2B8B2BA1F00E944403E2
:1011C00020916B0530916C0540916D0550916E0535
:1011D00064197509860997092617370748075907BB
:1011E00008F442C08091BC0083FDD8CFB5ECB09329
:1011F000BC000E9444032B013C01809169058130B1
:1012000009F45AC0809166058C1710F4C0916605E8
:10121000A5E4B5E0E3E2F5E080E08C1751F19D91A3
:1012200091938F5FFACF80916B0590916C05A0919F
:101230006D05B0916E05892B8A2B8B2B09F47DCF20
:101240000E94440320916B0530916C0540916D051F
:1012500050916E0564197509860997092617370795
:101260004807590708F069CF80916A050E94C205B6
:10127000C0E010922205C0932105C017110609F0A5
:1012800057C041018E0C9F1CE401CE0188199909B9
:101290008017910798F5D50111968D919C91DC01ED
:1012A000ED91FC910284F385E02D09958993EDCFB2
:1012B000E5EEE093BC009DCF80916B0590916C05AD
:1012C000A0916D05B0916E05892B8A2B8B2B09F4AB
:1012D00094CF0E94440320916B0530916C0540919E
:1012E0006D0550916E0564197509860997092617D1
:1012F00037074807590708F080CFB6CFE00EF11E38
:10130000EC14FD0408F408CF81E0DF91CF911F9128
:101310000F91FF90EF90DF90CF90BF90AF909F9094
:101320008F907F906F905F904F903F902F90089597
:1013300080E0EBCFCF93DF9300D0CDB7DEB79983BA
:101340008A83E0913606F091370684819581029771
:1013500010F490E020C081819281208131E03093AF
:101360006F05209391051092700510929205DC0193
:10137000ED91FC910280F381E02D42E050E0BE014E
:101380006F5F7F4F0995029721F781E00E94E30587
:1013900091E08111DECF892F0F900F90DF91CF91D7
:1013A0000895FC0101900020E9F73197AF01481B37
:1013B000590BBC0183EA95E00C945C040E94D109AE
:1013C0008FE591E00C94D109109215061092140645
:1013D000109217061092160610921806109219060F
:1013E00010921A0610921B0610921C0610921D06EF
:1013F00010921E0610921F061092200610922106CF
:101400001092220610922306109213060E943E01AB
:1014100010920B0610920C0610920D0610920E06FA
:1014200010920F06109210061092110610921206DA
:10143000109203068FEF8093040610920506109217
:1014400006061092070610920806109209061092DE
:101450000A0680911306882321F082E691E00C941D
:10146000DE0908952F923F924F925F926F927F9282
:101470008F929F92AF92BF92CF92DF92EF92FF92A4
:101480000F931F93CF93DF93CDB7DEB76B970FB654
:10149000F894DEBF0FBECDBF61E08BE00E94370243
:1014A00060E084E10E94370286E090E00197F1F766
:1014B00061E084E10E94370260E08BE00E94370225
:1014C0001092B6041092B5040FE010E04AE9A42E81
:1014D00041E0B42E5BE7852E51E0952E6CE5662E3B
:1014E00061E0762E76E0E72EF12CF5018491F4018F
:1014F0005490F3014490442009F456C381110E9492
:10150000EB01E42DF0E0EE0FFF1FE455FF4FA59136
:10151000B4918C91582231E020E009F430E0832F1F
:10152000922F002E02C0880F991F0A94E2F7209193
:10153000B5043091B604822B932B9093B60480931C
:10154000B50461E085E10E943702C7010197F1F718
:1015500060E085E10E9437020150110908F0C5CF13
:101560008091B5049091B604282F21702093B70480
:1015700081FB222720F92093B80482FB222720F93F
:101580002093B90483FB222720F92093BA0487FB18
:10159000222720F92093BB0486FB222720F92093E1
:1015A000BC0485FB222720F92093BD04829581701D
:1015B0008093BE04892F81708093BF0491FB88279C
:1015C00080F98093C00492FB882780F98093C1043E
:1015D00093FB992790F99093C2048DEA94E00E94BE
:1015E0004E08282F30E0A4E6B0E00E94FC1C2FE05B
:1015F00030E040E050E00E94791C922F2093470495
:101600008091480430914904332309F4D6C2682FED
:1016100070E0422F50E0FA0131976E177F070CF40B
:10162000C6C24F5F5F4F461757070CF4C0C22093E6
:10163000480420914804222391F030E050E040E03B
:101640002150310941095109A7EDB0E00E94981CD1
:1016500023E630E040E050E00E94791C285D622FD4
:1016600070E08AE00E94A10283EC94E00E944E08A0
:101670008111AAC210922406109225061092260605
:101680001092270682EA90E30E949A096AE070E0CD
:1016900080E090E00E94690380E094E20E949A0951
:1016A00064E170E080E090E00E94690346E050E071
:1016B000BE016F5F7F4F80913606909137060E9482
:1016C00075081B81CE0101960E947C01181709F450
:1016D000A2C2E12CF12C00EC1FE7EB8AFC8A0D8BF7
:1016E0001E8B8B899C89AD89BE8980932806909337
:1016F0002906A0932A06B0932B06E0902406F090CA
:1017000025060091260610912706EF8AF88E098F8C
:101710001A8FC801B7010E949F1E6F87788B898B33
:101720009A8B0F8518892801110F660877086B8935
:101730007C898D899E890E949F1E072E000C880B34
:10174000990B461A570A680A790A2091F7053091D1
:10175000F8054091F9055091FA052115310541052B
:10176000510509F4A8C2C301B2010E940B1D6F8389
:10177000788789879A870091FB051091FC05209155
:10178000FD053091FE05011511052105310509F40E
:10179000C6C258016901E12CF12C00E010E0920171
:1017A000A301D301C201BB0F880B982FDC018B87EB
:1017B0009C87AD87BE876B85762F862F962F0E94DC
:1017C0002D1DA0901806B0901906C0901A06D09052
:1017D0001B06E0901C06F0901D0600911E0610915D
:1017E0001F060E94A21D79018A012F3FEFEF3E07DD
:1017F0004E07EFE75E07610571058105910509F068
:101800000CF45EC28FEF80931806809319068093C4
:101810001A068FE780931B0610921C0610921D0675
:1018200010921E0610921F06E0901806F0901906FE
:1018300000911A0610911B066091FF057091000639
:10184000809101069091020661157105810591054F
:1018500009F469C28090200690902106A09022068B
:10186000B0902306A3019201281939094A095B099E
:10187000E0911406F09115068F8498888E1A9F0ABD
:10188000092C000CAA08BB08AF85B889B0931506CF
:10189000A0931406409220065092210660922206E0
:1018A00070922306281939094A095B092115B0E805
:1018B0003B07BFEF4B075B0724F420E030E84FEF16
:1018C0005FEF2115E0E83E074105510524F02FEFB9
:1018D0003FE740E050E00E940B1D2B013C018F8050
:1018E0009884A984BA84BB0C8808982C5401D80128
:1018F000C701BB0F880B982FDC018B879C87AD87B6
:10190000BE872F81388549855A85682D782D882D89
:10191000982D57016801EB84FE2C0E2D1E2D0E9480
:10192000A21D83017201110FEE08FE2C8701EF82C8
:10193000F88609871A8752016301EF80FE2C0E2D6D
:101940001E2D0E94A21D522E432E342E252E6F8353
:101950007B878F879B8FE0910306609004067090D1
:1019600005068090060690900706B0910806A091A3
:101970000906F0910A06AE2EB62CC72CD82CE92CFD
:10198000FB2E0A2F1F2F0E94AB1D09F05CF5E09182
:101990000B0660900C0670900D0680900E069090DD
:1019A0000F06B0911006A0911106F09112062E2F8D
:1019B000362D472D582D692D7B2F8A2F9F2FA52C33
:1019C000B42CC32CD22CEF80FB840F851B8D0E947E
:1019D000AB1D44F4E52D642C732C822C9E2CBF2D62
:1019E000A02FF12F2E2F362D472D582D692D7B2F0F
:1019F0008A2F9F2F08E00E94851D022F132F2E2F64
:101A0000207830E040E050E060E070E080E090E07E
:101A1000A0E00E94B41D11F00F5F1F4F1093390614
:101A20000093380620E030E0A9016F89788D898D18
:101A30009A8D0E94C21B81117AC10E94E409109202
:101A40003B0610923A0660913A0670913B0685E09B
:101A50000E94A10282E00E9481070E949B0328EE5F
:101A600033E040E050E00E94DA1C80914A049091FB
:101A70004B04A0914C04B0914D04281739074A0734
:101A80005B0799F020934A0430934B0440934C0435
:101A900050934D048091CB049091CC04009729F091
:101AA00001979093CC048093CB0485EA94E00E9444
:101AB0004E08282F30E0A4E6B0E00E94FC1C2FE086
:101AC00030E040E050E00E94791C622F2093D10466
:101AD0008091CF049091D004019709F07CC10E94BD
:101AE0009B0320E1822E27E2922EA12CB12CA5018E
:101AF00094010E94DA1C9B01AC01AEEFB1E00E94A0
:101B0000981CA50194010E94791C2F3F31054105C5
:101B1000510561F05CF08FEF90E0A0E0B0E07C0157
:101B20008D01E21AF30A040B150B97012093D204DE
:101B3000622F70E08DE00E94A1020E949B0328EEBC
:101B400033E040E050E00E94DA1C80914F04909115
:101B500050042817390750F080914E0430935004F8
:101B600020934F0491E0892780934E0460914E04A6
:101B700087E10E9437026B960FB6F894DEBF0FBE66
:101B8000CDBFDF91CF911F910F91FF90EF90DF902C
:101B9000CF90BF90AF909F908F907F906F905F900D
:101BA0004F903F902F90089590E080E0BACC891735
:101BB00048F48F5F809348043CCD893218F410922A
:101BC000480437CD8150F6CF90E0B0E0A0E0BC01F2
:101BD000CD01615071098109910925E0660F771FD8
:101BE000881F991F2A95D1F72EE030E040E050E0A1
:101BF0000E94791CCA01B9016E5C7F4F8F4F9F4FC5
:101C00000E94C91B609324067093250680932606C4
:101C10009093270637CD1E81CE0104960E947C0149
:101C2000181357CD29813A81322723273227A7E17C
:101C3000B1E10E94FC1CAEE095958795779567957C
:101C4000AA95D1F764597141810991090E94C91B74
:101C500020E030E048EC52E40E942D1E60933006F4
:101C60007093310680933206909333062C813D8128
:101C7000322723273227A1E7B2E00E94FC1CBCE0F8
:101C80009695879577956795BA95D1F70E94C71B6A
:101C900020E030E048EC52E40E942D1E6B8B7C8BE0
:101CA0008D8B9E8B60932C0670932D0680932E0651
:101CB00090932F0616CD1F82188619861A865BCD43
:101CC000211531054105E0E85E07EFEF6E077E075D
:101CD0008E079E078CF020931806F0921906409309
:101CE0001A0610931B0660931C0670931D068093C2
:101CF0001E0690931F0698CD109218061092190692
:101D000010921A0680E880931B068FEF80931C06C2
:101D100080931D0680931E0680931F0685CDE12CBF
:101D2000F12C870189CD412C512C3201D8CD0932BB
:101D3000110544F510923B0610923A06012BE9F486
:101D40002B893C894D895E896F89788D898D9A8D23
:101D50000E94D51E18168CF480913C0690913D0689
:101D60009C012F5F3F4F30933D0620933C06863900
:101D7000910508F468CE0E94E40910923D06109285
:101D80003C0661CE10933B0600933A060F3F1105C7
:101D9000E9F42B893C894D895E896F89788D898D1D
:101DA0009A8D0E94C21B87FF11C080913E069091C0
:101DB0003F069C012F5F3F4F30933F0620933E0626
:101DC0008639910508F43FCE0E94E40910923F063F
:101DD00010923E0638CE222399F033274427552708
:101DE0002150310941095109A5EFB0E00E94981C2A
:101DF00023E630E040E050E00E94791C6AE0620F88
:101E00006093D20470E08DE00E94A1020E949B03C7
:101E100028EE33E040E050E00E94DA1C80914F044D
:101E200090915004019695CE0C94D10983E791E0EE
:101E30000E94140F8DE791E00E94140F87E891E053
:101E40000E94140F81E991E00E94140F85E991E04E
:101E50000E94140F85EA91E00E94140F81E991E03D
:101E60000E94140F81EB91E00E94140F8EEB91E021
:101E70000E94140F88EC91E00E94140F81E991E018
:101E80000E94140F84ED91E00E94140F81EE91E006
:101E90000E94140F8BEE91E00E94140F87EF91E0E7
:101EA0000E94140F84E092E00E94140F8FE092E0F1
:101EB0000E94140F81E991E00E94140F8AE192E0E0
:101EC0000E94140F83E292E00E94140F8FE292E0CE
:101ED0000E94140F8BE392E00E94140F81E991E0BD
:101EE0000E94140F87E492E00E94140F81E991E0B0
:101EF0000E94140F81E691E00C94DE090F931F936A
:101F0000CF93DF93EC0188819981009759F02A8162
:101F10003B812617370730F081E0DF91CF911F9189
:101F20000F9108958B016F5F7F4F0E94FF1F0097F5
:101F300059F0998388831B830A832C813D81232B4D
:101F400059F7FC011082E8CF80E0E7CFEF92FF92D3
:101F50000F931F93CF93DF93EC017B0119821882BB
:101F60001B821A821D821C82FB0101900020E9F76E
:101F700031978F01061B170BB8010E947E0F288135
:101F80003981811113C02115310519F0C9010E9451
:101F9000761F198218821D821C821B821A82DF9191
:101FA000CF911F910F91FF90EF9008951D830C83A7
:101FB000B701C901DF91CF911F910F91FF90EF9071
:101FC0000C94C5200F931F93CF93DF938C01EC01EA
:101FD00009900020E9F72197C81BD90BBE0183E9BE
:101FE00095E00E947E0F2091930530919405811118
:101FF00017C02115310519F0C9010E94761F1092F2
:1020000094051092930510929805109297051092DE
:10201000960510929505DF91CF911F910F9108952C
:10202000D0939805C0939705B801C901DF91CF916E
:102030001F910F910C94C52085ED8093BC00809179
:102040006B0590916C05A0916D05B0916E0507969A
:10205000A11DB11D23E0B695A795979587952A9563
:10206000D1F72091BC0024FD03C0109269050895AA
:1020700040916B0550916C0560916D0570916E05F6
:10208000452B462B472B69F30097A105B10541F07D
:102090002AE12A95F1F700C00197A109B109E1CF22
:1020A00080916A050C94C2050F931F93CF93DF9321
:1020B000CDB7DEB7CF5FD1090FB6F894DEBF0FBE44
:1020C000CDBF8091CC048F938091CB048F9384E516
:1020D00092E09F938F938E010F5F1F4F1F930F937B
:1020E0000E94CC20C8010E94140F0F900F900F90F7
:1020F0000F900F900F9080915104811109C061E6FB
:1021000071E083E995E00E94A60F81E0809351047D
:102110008091CD049091CE0427E08A39920759F539
:102120008BE592E00E94E20F809194058F9380915D
:1021300093058F938CE792E09F938F931F930F9358
:102140000E94CC20C8010E94140F81E991E00E94F6
:10215000140F0F900F900F900F900F900F90C15091
:10216000DF4F0FB6F894DEBF0FBECDBFDF91CF912A
:102170001F910F91089528E08B33920719F483E69D
:1021800092E0D0CF27E08F3F920719F48AE692E0E1
:10219000C9CF8652984041F683E792E0C3CF0F93B0
:1021A0001F93CF93DF93CDB7DEB7CF5FD1090FB6C3
:1021B000F894DEBF0FBECDBF2091D20430E0A4E67C
:1021C000B0E00E94FC1C2FEF30E040E050E00E94A5
:1021D000791C5F934F933F932F9383E892E09F93F3
:1021E0008F938E010F5F1F4F1F930F930E94CC2080
:1021F000C8010E94140F0FB6F894DEBF0FBECDBF0A
:102200008091CF049091D0040197A9F58DE892E0D8
:102210000E94140F2091D20430E0A4E6B0E00E94A6
:10222000FC1C2FEF30E040E050E00E94791C5F93EF
:102230004F933F932F9382EA92E09F938F931F9344
:102240000F930E94CC20C8010E94140F81E991E0F5
:102250000E94140F0FB6F894DEBF0FBECDBFC15061
:10226000DF4F0FB6F894DEBF0FBECDBFDF91CF9129
:102270001F910F91089587E992E0CACFEF92FF92E4
:102280000F931F93CF93DF93CDB7DEB7CF5FD10905
:102290000FB6F894DEBF0FBECDBF84E2E82E86E015
:1022A000F82EF70160817181828193810E949F1EC7
:1022B0007F936F938DEA92E09F938F938E010F5FD0
:1022C0001F4F1F930F930E94CC20C8010E94140F30
:1022D000F70164817581868197810E949F1E7F939B
:1022E0006F9389EB92E09F938F931F930F930E94BC
:1022F000CC20C8010E94140FF70187898F9386892B
:102300008F9385EC92E09F938F931F930F930E947E
:10231000CC20C8010E94140FF70185898F9384890E
:102320008F9388ED92E09F938F931F930F930E945A
:10233000CC20C8010E94140FF701818D8F93808DEE
:102340008F9389EE92E09F938F931F930F930E9438
:10235000CC20C8010E94140FF701838D8F93828DCA
:102360008F938CEF92E09F938F931F930F930E9414
:10237000CC200FB6F894DEBF0FBECDBFC8010E94BF
:10238000140F81E991E00E94140FC150DF4F0FB686
:10239000F894DEBF0FBECDBFDF91CF911F910F919B
:1023A000FF90EF900895DF92EF92FF920F931F93AB
:1023B000CF93DF93CDB7DEB7CF5FD1090FB6F894D7
:1023C000DEBF0FBECDBF85EA94E00E944E081F928B
:1023D0009FE0D92EDF921F928F932FE0E22E23E011
:1023E000F22EFF92EF928E010F5F1F4F1F930F93FC
:1023F0000E94CC20C8010E94140F83EC94E00E943C
:102400004E081F92DF921F928F93FF92EF921F93BD
:102410000F930E94CC20C8010E94140F8DEA94E013
:102420000E944E081F92DF921F928F93FF92EF92AD
:102430001F930F930E94CC20C8010E94140F81E9C2
:1024400091E00E94140F0FB6F894DEBF0FBECDBF0F
:10245000C150DF4F0FB6F894DEBF0FBECDBFDF9186
:10246000CF911F910F91FF90EF90DF9008954F92C1
:102470005F926F927F928F929F92AF92BF92CF9214
:10248000DF92EF92FF920F931F93CF93DF93CDB71D
:10249000DEB7C550D1400FB6F894DEBF0FBECDBF3A
:1024A000809147041F928F9389E293E09F938F93CB
:1024B0008E010F5F1F4F1F930F930E94CC20C80106
:1024C0000E94140F0F900F900F900F900F900F908D
:1024D0008091490460E273E0882311F068E173E0C1
:1024E000CE0193950E94A60FCF5FDE4F8881C15029
:1024F000D1408F93C050DF4F8881C050D1408F931F
:102500008CE792E09F938F931F930F930E94CC20B0
:10251000C050DF4F88819981C050D1400F900F90FB
:102520000F900F900F900F90009711F00E94761F60
:10253000C8010E94140F609142047091430480917D
:1025400044049091450428EE822E23E0922EA12C83
:10255000B12CA50194010E94DA1C69010E949B0321
:1025600040903E0450903F046090400470904104BD
:102570006419750986099709A50194010E94DA1C5E
:10258000C21AD30ADF92CF9283E393E09F938F9393
:102590001F930F930E94CC20C8010E94140F8091BA
:1025A00048041F928F9383E892E09F938F931F9329
:1025B0000F930E94CC20C8010E94140F81E991E082
:1025C0000E94140F0FB6F894DEBF0FBECDBFCB5FD5
:1025D000DE4F0FB6F894DEBF0FBECDBFDF91CF91B7
:1025E0001F910F91FF90EF90DF90CF90BF90AF9031
:1025F0009F908F907F906F905F904F9008950F9372
:102600001F93CF93DF93CDB7DEB7CF5FD1090FB65E
:10261000F894DEBF0FBECDBF809146048F5F8093DC
:1026200046046CE30E941B1D911104C00E94160F0A
:10263000109246040E94D3110E9454100E94CF10A1
:102640000E943E110E9437128EE393E09F938F9376
:1026500084E493E09F938F938E010F5F1F4F1F932E
:102660000F930E94CC20C8010E94140F81E991E0D1
:102670000E94140F81E691E00E94DE090F900F90F6
:102680000F900F900F900F90C150DF4F0FB6F8943E
:10269000DEBF0FBECDBFDF91CF911F910F91089587
:1026A0000F931F93CF93DF93CDB7DEB7CF5FD109E1
:1026B0000FB6F894DEBF0FBECDBF109249040E9442
:1026C0009B0360933E0470933F0480934004909377
:1026D0004104109242041092430410924404109258
:1026E00045048FEA93E19093050580930405E3ED9B
:1026F000F4E014A687EA93E091A380A381EF94E02D
:1027000093A382A314A215A216A217A210A611A623
:1027100012A613A60E94FD001F921F921F921F92E5
:102720008CE493E09F938F938E010F5F1F4F1F9355
:102730000F930E94CC20C8010E94DE090FB6F894C6
:10274000DEBF0FBECDBFC150DF4F0FB6F894DEBF66
:102750000FBECDBFDF91CF911F910F9108950F93C1
:102760001F93CF93DF93CDB7DEB7CF5FD1090FB6FD
:10277000F894DEBF0FBECDBF81E0809349040E9474
:102780009B0360933E0470933F04809340049093B6
:10279000410480E497E7ABE1B0E08093420490937A
:1027A0004304A0934404B093450420E533E13093FF
:1027B000050520930405E3EDF4E014A627EA33E0D1
:1027C00031A320A321EF34E033A322A384A395A354
:1027D000A6A3B7A380A791A7A2A7B3A7C9010E94E8
:1027E000FD001F921F9287E08F9388E08F9384E60D
:1027F00093E09F938F938E010F5F1F4F1F930F9353
:102800000E94CC20C8010E94DE090FB6F894DEBFFA
:102810000FBECDBFC150DF4F0FB6F894DEBF0FBE65
:10282000CDBFDF91CF911F910F9108951F920F920D
:102830000FB60F9211242F933F938F939F93AF93D3
:10284000BF938091070590910805A0910905B0916B
:102850000A053091060526E0230F2D3758F502961C
:10286000A11DB11D209306058093070590930805CF
:10287000A0930905B0930A0580910B0590910C0572
:10288000A0910D05B0910E050196A11DB11D80937B
:102890000B0590930C05A0930D05B0930E05BF9109
:1028A000AF919F918F913F912F910F900FBE0F90FD
:1028B0001F90189529E8230F0396A11DB11DD2CFB3
:1028C0001F920F920FB60F9211248F939F938091B6
:1028D000E1009091E100937F9093E10083FF0FC0AE
:1028E0001092E90091E09093EB001092EC0092E3DB
:1028F0009093ED0010921C0598E09093F00082FFF9
:1029000022C093E09093E9009091F200992319F08E
:102910009AE39093E8009091A204992341F090915A
:10292000A20491509093A204911101C05D989091DE
:102930001B05992341F090911B05915090931B0525
:10294000911101C0289884FF18C08091E2008E7E0A
:1029500081608093E2008091E1008F7E8093E100AE
:102960008091A3048E7E80618093A3049F918F91B8
:102970000F900FBE0F901F90189580FFF7CF80919A
:10298000E2008E7E80618093E2008091E1008E7E85
:102990008093E1008091A3048E7E8160E5CF1F9239
:1029A0000F920FB60F921124CF92DF92EF92FF9207
:1029B0000F931F932F933F934F935F936F937F9347
:1029C0008F939F93AF93BF93EF93FF93CF93DF9337
:1029D000CDB7DEB76C97DEBFCDBF1092E900809116
:1029E000E80083FF25C068E0CE0145960E944F04B1
:1029F00082EF8093E8008D8987FF39C09091E800CD
:102A000090FFFCCF982F907609F034C19E894F89B2
:102A1000588D2F89F88C911131C0803861F58091E3
:102A2000A4048093F1001092F1008EEF8093E800EF
:102A30006C960FB6F894DEBF0FBECDBFDF91CF917D
:102A4000FF91EF91BF91AF919F918F917F916F9186
:102A50005F914F913F912F911F910F91FF90EF90B8
:102A6000DF90CF900F900FBE0F901F9018959EEFA4
:102A70009093E800C7CF1092F100D5CF913059F470
:102A80008111D3CF4130510581F68091A4048D7F0F
:102A90008093A404CACF933049F48111C6CF41304A
:102AA000510519F68091A4048260F2CF953041F46B
:102AB0008091E80080FFFCCF20682093E300B5CF31
:102AC000963009F0A9C00B8D1C8D22E01092E90010
:102AD0001092A00410929F04F2122EC010929E0435
:102AE00010929D040E941E041F8299E09983FA822D
:102AF00091E09E8390EA98879AEF998720919F04AE
:102B00003091A004275F3F4F3C832B838D8310922D
:102B1000E9001092A00410929F0410939E04009369
:102B20009D0449E050E0BE016F5F7F4F80E00E944E
:102B3000F8030E941E0479CF10939E0400939D0415
:102B40000E94D701DC0112960D911C91011511050F
:102B500009F451C1D801ED91FC910480F581E02D7B
:102B6000BE016B5E7F4FC8010995009709F03EC119
:102B7000F80100851185EACFF3E0FF120EC08F89BE
:102B8000882309F440C0823061F440E86EE08BE1B4
:102B900091E00E942018811148CF81E28093EB00E0
:102BA00047CF813029F440E868E082E191E0F1CF3D
:102BB000833099F70E94D701DC011296ED90FC90CA
:102BC0008E010F5F1F4F6801E114F10479F0D70106
:102BD000ED91FC910680F781E02DB801C7010995C0
:102BE000080F111DF701E084F184EECFD8011C928B
:102BF000F60101900020E9F73197BF016C197D09BA
:102C000040E0C601C6CF6CEF70E0FB01449150E09C
:102C100080E80E94F80309CF973009F4BECF9830BE
:102C200021F481E08093F10000CF993009F0FDCECE
:102C3000837009F0B2CFE3E3F1E081E031E096E3A5
:102C40002191222371F08093E9003093EB00DF01A2
:102C500011972C912093EC009093ED008F5F8730BB
:102C600079F78EE78093EA001092EA008F898093CB
:102C70001C05DBCE8B8D9C8D1092E9001092A00478
:102C800010929F0490939E0480939D04898D8111DE
:102C900092C08E899D89913A49F4813209F07DCFA5
:102CA00047E050E064E071E080E0B3CF913209F09A
:102CB00074CF833269F48F89988DB0E0A0E080935F
:102CC000000190930101A0930201B0930301ADCEE6
:102CD000803269F48091E80082FFFCCF67E084E0F5
:102CE00091E00E944F048BEF8093E8009ECE8232E9
:102CF00009F09BCE8F8980930B01EEEFFFE7859162
:102D000094918B3F9C4D51F1E0E0F8E080910401FB
:102D100090910501A0910601B0910701803B94407C
:102D2000A105B105F1F480910B0180FD1AC0EE3FC1
:102D30008AE0F80789F587E797E791838083809198
:102D400060008093A10488E19BE00FB6F894A895F9
:102D5000809360000FBE9093600067CEEEEFFAE0C4
:102D6000D5CF808191818737974709F05ECEA895AE
:102D7000809160008861809360008091A1048093BD
:102D80006000EE3F2AE0F20789F08091FE0A909100
:102D9000FF0A9183808349CE80819181873798078C
:102DA00051F29093FF0A8093FE0AC5CF1092FF0A5A
:102DB0001092FE0A3ACE0E94D701DC0112960D91C4
:102DC0001C910115110509F4E8CED801ED91FC9193
:102DD0000190F081E02DBE016B5E7F4FC801099527
:102DE000811123CEF80100851185EBCF1816190645
:102DF0000CF41BCED2CEF1E0FF12BECE60E071E04B
:102E000004CF1F920F920FB60F9211242F933F936E
:102E10004F935F936F937F938F939F93AF93BF93E2
:102E2000EF93FF938091B900887F803609F44AC000
:102E3000F0F5883209F4A7C018F5803109F49BC079
:102E4000B8F4882309F4F9C0883009F494C0FF91DC
:102E5000EF91BF91AF919F918F917F916F915F9112
:102E60004F913F912F910F900FBE0F901F9018958B
:102E7000883109F488C0803251F78093670514C007
:102E8000803409F49DC040F48033B9F38833F9F6F7
:102E90008093670585ECB0C0803509F485C088351E
:102EA00009F496C0883499F60E941C10D0CF883956
:102EB00009F48CC038F5883729F050F4883611F0C1
:102EC000803729F683E08093690510929C0457C0EF
:102ED000883809F47BC0803919F0803809F0B7CF01
:102EE00080919C04803208F071C0E0919C0481E0E4
:102EF0008E0F80939C048091BB00F0E0E458FB4F60
:102F000080833DC0803B39F0E0F4803A09F479C019
:102F1000883A09F09CCF84E08093690510927B0485
:102F200010927A04E0911F05F09120050995809197
:102F30007A0481110FC081E080937A0410925A04C0
:102F400009C0803C09F4A6CF883C09F4A3CF883B94
:102F500009F07DCFE0917B0481E08E0F80937B04AC
:102F6000F0E0E65AFB4F80818093BB0090917B0498
:102F700080917A0429C0809144058093BB0085EC40
:102F80008093BC0064CF9091660580916505981789
:102F900058F5E091660581E08E0F80936605F0E0BC
:102FA000EB5BFA4F8081E9CFE091660581E08E0FFF
:102FB000809366058091BB00F0E0EB5BFA4F808365
:102FC00090916605809165059817C8F285E8D8CF7D
:102FD000E091660581E08E0F809366058091BB00CD
:102FE000F0E0EB5BFA4F80838091680581115CCF44
:102FF00081E08093430584EA8093BC0010926905C8
:1030000026CF85EC8093BC001092690580919C04CA
:10301000803230F4E0919C04F0E0E458FB4F1082E1
:1030200060919C0470E0E0911D05F0911E058CE715
:1030300094E0099510929C040ACF1092670534CF52
:10304000EF92FF920F931F93CF93DF93F82E192FD8
:10305000E62E042F81E0860F880F0E94CA0383E0CA
:103060000E94CA03CF2DD12FEC0EFD2EF11CCE15E0
:10307000DF05B9F007FF13C0FE0184910E94CA0367
:10308000182F80E00E94CA03812321968111EFCF7F
:10309000DF91CF911F910F91FF90EF90089588815C
:1030A000EDCF81E0F5CFCF92DF92EF92FF92CF93F9
:1030B000DF93E3EAF5E01382128288EE93E0A0E06A
:1030C000B0E084839583A683B7832DE331E0318319
:1030D00020832FEF3FEF35872487C0E4D6E01B82A3
:1030E0001A828C839D83AE83BF838FE491E09983A2
:1030F00088838DE591E09093F4058093F30583EF49
:1031000095E09093F6058093F505E4E2F6E0138AE6
:10311000128AD18BC08BC12CD12C80ECE82E8FE78A
:10312000F82EC086D186E286F386C486D586E686EA
:10313000F7860E943E01ECE4F6E0168A158AD48BED
:10314000C38BC386D486E586F686C786D08AE18A95
:10315000F28ADF91CF91FF90EF90DF90CF900895AA
:10316000CF93DF9300D01F92CDB7DEB7789484B5AC
:10317000826084BD84B5816084BD85B5826085BD73
:1031800085B5816085BD80916E00816080936E0001
:1031900010928100809181008260809381008091F3
:1031A00081008160809381008091800081608093A4
:1031B00080008091910082608093910080919100C5
:1031C0008160809391008091900081608093900055
:1031D0008091C10084608093C1008091C1008260B1
:1031E0008093C1008091C10081608093C100809173
:1031F000C30081608093C3008091C000826080938F
:10320000C0008091C20081608093C20080917A00EA
:10321000846080937A0080917A00826080937A0043
:1032200080917A008E7F80937A0080917A00806806
:1032300080937A0010921C051092A4041092A304AB
:103240008091D70081608093D70080EA8093D80076
:1032500089B58F7E89BD89B5826089BD09B400FEBC
:10326000FDCF61E070E080E090E00E946903809112
:10327000D8008F7C80618093D8008091E000807FAF
:103280008093E0008091E1008E7E8093E1008DE0EC
:103290008093E200559A209A68E873E180E090E01C
:1032A0000E9469038FE793E00E94DE098BE993E0B7
:1032B0000E94DE098091F5059091F60590939A059C
:1032C00080939905DC01ED91FC910190F081E02D56
:1032D000099590939E0580939D058BE995E09093C9
:1032E0009C0580939B0585EA93E00E94DE0961E0DE
:1032F00084E10E94650261E085E10E94650261E06F
:103300008BE00E94650260E086E10E94650262E057
:1033100084E00E94650262E08CE00E94650262E047
:1033200086E00E94650262E088E00E94650260E03B
:1033300085E10E94370261E084E10E94370287EB59
:1033400094E09093C4048093C30488EB94E090933A
:10335000C6048093C50489EB94E09093C8048093DD
:10336000C7048AEB94E09093CA048093C9048BEB62
:1033700094E09093AE048093AD048CEB94E0909332
:10338000B0048093AF048DEB94E09093B2048093EB
:10339000B1048EEB94E09093B4048093B3048FEB6C
:1033A00094E09093A6048093A50480EC94E090931D
:1033B000A8048093A70481EC94E09093AA048093DE
:1033C000A90482EC94E09093AC048093AB0481EB6D
:1033D00093E00E94DE09FF24F394F092800014E051
:1033E0001093810061E08AE00E9465020E94AF13A1
:1033F0008CEC93E00E94DE09F09290001093910013
:1034000061E085E00E9465020E94AB0580E090E0EB
:10341000A0ECBFE780932C0690932D06A0932E0678
:10342000B0932F068093300690933106A093320616
:10343000B093330620E4A22E26E0B22EB0923506D9
:10344000A092340686E090E00E94DA1E8C0184E4AB
:10345000F8018083B282A182138280E290E095839A
:10346000848310933706009336060E94AB05D8017B
:103470001396FC92C8010E94D3068823C9F082EA01
:1034800090E30E949A096AE070E080E090E00E9478
:1034900069038DE293EF0E949A0943E050E0BE0178
:1034A0006F5F7F4F80913606909137060E947508B6
:1034B0000E94E40910923D0610923C0610923F06CD
:1034C00010923E06109239061092380610923B0672
:1034D00010923A0683EE93E00E94DE098AE997E0B3
:1034E0009093CE048093CD041092D0041092CF0418
:1034F00080EB94E09093CC048093CB0481EF93E035
:103500000E94DE0961E08DE00E94650261E087E1D2
:103510000E94650285E094E00E94DE0982E39AE061
:103520009093010580930005FF24F394F092E10449
:1035300007EA13E01093D6040093D50483ED94E0DA
:103540009093D8048093D70484E690E0A0E0B0E0A4
:103550008093D9049093DA04A093DB04B093DC0445
:103560008093DD049093DE04A093DF04B093E00425
:1035700083ED94E00E94FD008FEF92E190930305AC
:1035800080930205F092F0041093E5040093E404A4
:1035900082EE94E09093E7048093E60488EE93E053
:1035A000A0E0B0E08093E8049093E904A093EA04DB
:1035B000B093EB048093EC049093ED04A093EE049D
:1035C000B093EF0482EE94E00E94FD0089E194E064
:1035D0000E94DE090E94160F88248A94982C5401B8
:1035E00090E0E92E90E0F92E8091990590919A054E
:1035F000DC01ED91FC910190F081E02D0995209185
:103600009D0530919E052C01421A530A90939E0508
:1036100080939D0580929F059092A005A092A105A0
:10362000B092A205E0919B05F0919C05DF010FEFA0
:103630001FEF980180E0712C612C95E0AB39B90740
:10364000F9F400939F051093A0052093A1053093F2
:10365000A2058F0181114BC0E114F10429F20E94EF
:103660000000C2CF1A961D921D921D921C921D97AA
:10367000882321F000E010E0980124C081E022C0FE
:10368000DC9011969C9111971097D9F21A964D9152
:103690005D916D917C911D974416550666067706DF
:1036A00008F744195509660977091A964D935D93F1
:1036B0006D937C931D97401751076207730710F4B1
:1036C0008A019B01AD2DB92FB8CFDF01E92FF82F6B
:1036D00085E0EB39F80749F1908181810E171F07CA
:1036E000A1F79C9311968C9320C0092F182F95E079
:1036F0000B39190709F4B0CFD8019C9111968C9120
:103700000115110509F4A8CFD8011A964D915D91C4
:103710006D917C911D97452B462B472B31F71E96BB
:103720008C91ABE9B5E0882399F2D80114966D919C
:103730007C9115971296ED91FC9189E995E0099598
:10374000F8018685E0919B05F0919C05882309F49A
:1037500083CF85E0EB39F80709F47ECF0E171F07FA
:1037600021F00190F081E02DF4CFF801868197815E
:10377000A085B18582879387A487B587C8010E94F9
:10378000FD006ACF0E94041C08F481E00895E894CB
:1037900009C097FB3EF490958095709561957F4F99
:1037A0008F4F9F4F9923A9F0F92F96E9BB27939547
:1037B000F695879577956795B795F111F8CFFAF457
:1037C000BB0F11F460FF1BC06F5F7F4F8F4F9F4F88
:1037D00016C0882311F096E911C0772321F09EE8E6
:1037E000872F762F05C0662371F096E8862F70E04C
:1037F00060E02AF09A95660F771F881FDAF7880F26
:103800009695879597F90895990F0008550FAA0B7B
:10381000E0E8FEEF16161706E807F907C0F01216E3
:103820001306E407F50798F0621B730B840B950BE6
:1038300039F40A2661F0232B242B252B21F408953B
:103840000A2609F4A140A6958FEF811D811D0895D8
:1038500097F99F6780E870E060E008959FEF80EC43
:10386000089500240A9416161706180609060895E6
:1038700000240A9412161306140605060895092E4C
:103880000394000C11F4882352F0BB0F40F4BF2BBB
:1038900011F460FF04C06F5F7F4F8F4F9F4F0895FB
:1038A00057FD9058440F551F59F05F3F71F04795F1
:1038B000880F97FB991F61F09F3F79F087950895D6
:1038C000121613061406551FF2CF4695F1DF08C0F5
:1038D000161617061806991FF1CF86957105610512
:1038E00008940895E894BB2766277727CB0197F9BA
:1038F0000895052E97FB1EF400940E94901C57FD1E
:1039000007D00E94DA1C07FC03D04EF40C94901CE4
:1039100050954095309521953F4F4F4F5F4F0895FB
:1039200090958095709561957F4F8F4F9F4F08952B
:103930000E94FC1CA59F900DB49F900DA49F800D2C
:10394000911D112408952F923F924F925F926F9292
:103950007F928F929F92AF92BF92CF92DF92EF921F
:10396000FF920F931F93CF93DF93CDB7DEB7CA1BA0
:10397000DB0B0FB6F894DEBF0FBECDBF09942A88CB
:10398000398848885F846E847D848C849B84AA8473
:10399000B984C884DF80EE80FD800C811B81AA8100
:1039A000B981CE0FD11D0FB6F894DEBF0FBECDBFCB
:1039B000ED010895A1E21A2EAA1BBB1BFD010DC04B
:1039C000AA1FBB1FEE1FFF1FA217B307E407F507CF
:1039D00020F0A21BB30BE40BF50B661F771F881FAB
:1039E000991F1A9469F760957095809590959B0141
:1039F000AC01BD01CF010895A29FB001B39FC001EA
:103A0000A39F700D811D1124911DB29F700D811D0A
:103A10001124911D0895DB018F939F930E94981CA0
:103A2000BF91AF91A29F800D911DA39F900DB29F5A
:103A3000900D11240895991B79E004C0991F9617E1
:103A400008F0961B881F7A95C9F780950895EE0FA8
:103A5000FF1F0590F491E02D0994DF93CF931F93FE
:103A60000F939A9DF02D219FF00D8B9DF00D8A9D57
:103A7000E02DF10D039FF00D029FE00DF11D4E9D15
:103A8000E00DF11D5E9DF00D4F9DF00D7F936F9346
:103A9000BF92AF925F934F93D5010E94FC1C8B01A4
:103AA000AC01D7010E94FC1CEB01E80FF91FD60105
:103AB0000E947C1D2F913F91D6010E94FC1CC60FD5
:103AC000D71FE81FF91FAF91BF910E947C1D2F9156
:103AD0003F910E94FC1CC60FD71FE81FF91FD6019B
:103AE0000E94FC1CE60FF71F9801BE01CF010F9149
:103AF0001F91CF91DF9108950E94FC1C460F571F24
:103B0000C81FD91F08F43196089597FD1094002E10
:103B1000083098F00850232F342F452F562F672F49
:103B2000782F892F912DF4CF1594979587957795B8
:103B3000679557954795379527950A95AAF71124C4
:103B4000002D08952A0D3B1D4C1D5D1D6E1D7F1D12
:103B5000801F911F08952A153B054C055D056E05D4
:103B60007F058007910708950024A7FD00942A1778
:103B700030054005500560057005800590050895E5
:103B80005058BB27AA270E94D81D0C943F1C0E94A6
:103B9000311C38F00E94381C20F039F49F3F19F492
:103BA00026F40C942E1C0EF4E095E7FB0C94281CD4
:103BB000E92F0E94501C58F3BA1762077307840755
:103BC000950720F079F4A6F50C94721C0EF4E0959C
:103BD0000B2EBA2FA02D0B01B90190010C01CA01C7
:103BE000A0011124FF27591B99F0593F50F4503E72
:103BF00068F11A16F040A22F232F342F4427585F64
:103C0000F3CF469537952795A795F0405395C9F77B
:103C10007EF41F16BA0B620B730B840BBAF0915033
:103C2000A1F0FF0FBB1F661F771F881FC2F70EC0D2
:103C3000BA0F621F731F841F48F4879577956795A5
:103C4000B795F7959E3F08F0B0CF9395880F08F091
:103C50009927EE0F9795879508950E94411E0C9421
:103C60003F1C0E94381C58F00E94311C40F029F47F
:103C70005F3F29F00C94281C51110C94731C0C9478
:103C80002E1C0E94501C68F39923B1F3552391F325
:103C9000951B550BBB27AA2762177307840738F0BB
:103CA0009F5F5F4F220F331F441FAA1FA9F335D018
:103CB0000E2E3AF0E0E832D091505040E695001CCC
:103CC000CAF72BD0FE2F29D0660F771F881FBB1F86
:103CD000261737074807AB07B0E809F0BB0B802D64
:103CE000BF01FF2793585F4F3AF09E3F510578F090
:103CF0000C94281C0C94731C5F3FE4F3983ED4F39F
:103D0000869577956795B795F7959F5FC9F7880F63
:103D1000911D9695879597F90895E1E0660F771FB5
:103D2000881FBB1F621773078407BA0720F0621B46
:103D3000730B840BBA0BEE1F88F7E09508950E9471
:103D4000A61E6894B1110C94731C08950E94581C0F
:103D500088F09F5798F0B92F9927B751B0F0E1F04C
:103D6000660F771F881F991F1AF0BA95C9F714C0FC
:103D7000B13091F00E94721CB1E008950C94721C55
:103D8000672F782F8827B85F39F0B93FCCF3869535
:103D900077956795B395D9F73EF490958095709592
:103DA00061957F4F8F4F9F4F08950E94041C08F428
:103DB0008FEF08950F931F93CF93DF938230910578
:103DC00010F482E090E0E0917106F091720630E02C
:103DD00020E0B0E0A0E0309799F42115310509F416
:103DE0004AC0281B390B24303105D8F58A819B81C4
:103DF0006115710589F1FB0193838283FE0111C076
:103E0000408151810281138148175907E0F048171A
:103E1000590799F4109761F012960C931297139624
:103E20001C933296CF01DF91CF911F910F9108958E
:103E30000093710610937206F4CF2115310551F0ED
:103E40004217530738F0A901DB019A01BD01DF01D8
:103E5000F801C1CFEF01F9CF9093720680937106FC
:103E6000CDCFFE01E20FF31F8193919322503109D0
:103E700039832883D7CF20916F0630917006232B8A
:103E800041F420910E0130910F0130937006209380
:103E90006F0620910C0130910D012115310541F47F
:103EA0002DB73EB74091100150911101241B350BE5
:103EB000E0916F06F0917006E217F307A0F42E1B55
:103EC0003F0B2817390778F0AC014E5F5F4F24177E
:103ED000350748F04E0F5F1F5093700640936F06F2
:103EE000819391939FCFF0E0E0E09CCFCF93DF935D
:103EF0000097E9F0FC01329713821282A0917106BB
:103F0000B0917206ED0130E020E01097A1F420811D
:103F10003181820F931F20916F0630917006281710
:103F2000390709F061C0F0937006E0936F06DF91E6
:103F3000CF910895EA01CE17DF07E8F54A815B814A
:103F40009E0141155105B1F7E901FB83EA834991CF
:103F50005991C40FD51FEC17FD0761F48081918141
:103F60000296840F951FE90199838883828193814A
:103F70009B838A83F0E0E0E012968D919C911397E9
:103F80000097B9F52D913C911197CD010296820FC2
:103F9000931F20916F06309170062817390739F664
:103FA000309751F51092720610927106B093700618
:103FB000A0936F06BCCFD383C28340815181840F0D
:103FC000951FC817D90761F44E5F5F4F88819981AB
:103FD000480F591F518340838A819B819383828339
:103FE0002115310509F0B0CFF0937206E093710608
:103FF0009ECFFD01DC01C0CF13821282D7CFB0E08B
:10400000A0E0E5E0F0E20C94A51C8C01009751F4CF
:10401000CB010E94DA1E8C01C801CDB7DEB7E0E10A
:104020000C94C11CFC01E60FF71F9C0122503109C2
:10403000E217F30708F49DC0D901CD91DC911197E7
:10404000C617D70798F0C530D10530F3CE010497D5
:104050008617970708F3C61BD70B2297C193D193F6
:104060006D937C93CF010E94761FD6CF5B01AC1A73
:10407000BD0A4C018C0E9D1EA0917106B091720676
:10408000512C412CF12CE12C109731F580916F06C9
:10409000909170068815990509F05CC04616570680
:1040A00008F058C080910C0190910D01009741F4E7
:1040B0008DB79EB74091100150911101841B950B53
:1040C000E817F90708F055C0F0937006E0936F0603
:1040D000F90171836083A0CF8D919C911197129605
:1040E0006C90129713967C901397A815B90559F503
:1040F0006C0142E0C40ED11CCA14DB0420F1AC01F7
:104100004A195B09DA011296159780F06282738270
:1041100051834083D9016D937C93E114F10471F0D4
:10412000D7011396FC93EE93129776CF22968C0FBD
:104130009D1FF90191838083F301EFCFF093720605
:10414000E093710669CF4816590608F42C017D01E9
:10415000D3019ACFCB010E94DA1E7C01009749F06F
:10416000AE01B8010E94BC20C8010E94761F8701E1
:1041700053CF10E000E050CFFB01DC0102C0019002
:104180000D9241505040D8F70895FB01DC01019099
:104190000D920020E1F70895AEE0B0E0E2EDF0E22C
:1041A0000C94B11C0D891E8986E08C831A830983C7
:1041B0008FEF9FE79E838D83AE01475E5F4F6F89D0
:1041C000788DCE0101960E94EF202F813885020F55
:1041D000131FF80110822E96E4E00C94CD1CABE086
:1041E000B0E0E5EFF0E20C94A31C7C013B018A01F6
:1041F000FC0117821682838181FFC8C1CE0101961E
:104200005C01F7019381F30193FD859193FF819107
:104210003F01882309F453C1853239F493FD859118
:1042200093FF81913F01853229F4B70190E00E940C
:10423000DF22E7CF912C212C312CFFE1F31538F050
:104240008B3211F190F4803209F1833229F137FC7D
:104250003CC020ED280F2A3050F536FE20C08AE001
:10426000989E200D1124922E06C08D3291F080333D
:1042700071F7689430F8F30193FD859193FF819174
:104280003F018111DACF21C0689431F8689432F887
:10429000F2CF689433F8EFCF689434F8ECCFEAE0CB
:1042A0002E9E200D1124222E689435F8E4CF8E32F4
:1042B00029F436FC04C1689436F8DDCF8C3619F445
:1042C000689437F8D8CF8836B1F2982F9F7D9554EF
:1042D0009330E0F08336A1F18337C1F1833509F0E3
:1042E00063C02801F2E04F0E511CF801C080D1805C
:1042F000692D70E036FC02C06FEF7FEFC6010E94AF
:10430000C9224C01689437F882010AC00C5F1F4F24
:10431000FFE3F98388248394912C6501E89437F8AE
:1043200033FE2DC0522C8114910471F5552009F4EF
:1043300068CFB70180E290E00E94DF225A94F6CF66
:10434000F801808189830E5F1F4FE4CF2801F2E0DE
:104350004F0E511CF801C080D180692D70E036FCF1
:1043600002C06FEF7FEFC6010E94D4224C01820190
:10437000D5CFB70180E290E00E94DF222A94281472
:10438000190409F0B0F7CECFF60137FC859137FE5E
:1043900081916F01B70190E00E94DF2251105A9481
:1043A000F1E08F1A9108BFCF843619F0893609F0F1
:1043B00077C0F80137FE6BC0608171818281938183
:1043C0000C5F1F4FF32DFF763F2E97FF09C090958E
:1043D0008095709561957F4F8F4F9F4F689437F808
:1043E0002AE030E0A5010E940F23C82ECA188C2CA9
:1043F000432C36FE0CC0E89440F8C91440F434FE57
:1044000005C032FC03C0F32DFE7E4F2E892C44FEE6
:1044100095C0FE01EC0DF11D8081803309F087C04D
:10442000242D297E422E842D8870582E43FC95C061
:1044300040FE8FC09C2C821418F42C0C922C9818DF
:1044400044FE91C0B70180E390E00E94DF2242FE6B
:1044500009C088E790E041FE02C088E590E0B7011E
:104460000E94DF22C91408F48AC0CA94D12C9FEF9D
:10447000C91AD90ACA0CDB1CF60182916F01B70177
:1044800090E00E94DF22AC14BD04B1F74FCF6081F1
:104490007181072E000C880B990B0E5F1F4F92CF76
:1044A000D32CE894D4F82AE030E0853739F1232D75
:1044B000297FD22E8F3601F148F48835A9F0F70113
:1044C000868197812B96E2E10C94BF1C803749F0DE
:1044D0008837A9F7D4FE02C06894D2F820E130E012
:1044E0000DC06894D4F8F6CF34FE03C0822F8660E6
:1044F000D82E20E132E002C028E030E0F801D7FEFB
:104500000FC060817181828193810C5F1F4FA50173
:104510000E940F23C82ECA183D2CE89437F867CFA5
:104520006081718190E080E00E5F1F4FF0CF42FC10
:1045300002C0839478CF8394839475CF842D86783A
:1045400009F471CFF6CFB70180E290E00E94DF223C
:1045500083948214C0F3512C73CF522C58188214B8
:1045600008F46ECFF8CF842D867809F47BCF8BE2E8
:1045700041FE80E247FC8DE2B70190E071CFB701C8
:1045800080E390E00E94DF229A946CCF8FEF9FEF40
:1045900099CFFC010590615070400110D8F78095CB
:1045A00090958E0F9F1F0895FC01615070400190FF
:1045B0000110D8F7809590958E0F9F1F08950F9347
:1045C0001F93CF93DF93182F092FEB018B8181FD70
:1045D00009C01FEF0FEF812F902FDF91CF911F9117
:1045E0000F91089582FF14C02E813F818C819D819F
:1045F000281739073CF4E881F981CF0101969983A6
:10460000888310838E819F8101969F838E83E3CF61
:10461000E885F985812F0995892BA1F3DACFFA0175
:10462000AA27283051F1203181F1E8946F936E7FF1
:104630006E5F7F4F8F4F9F4FAF4FB1E03ED0B4E0E2
:104640003CD0670F781F891F9A1FA11D680F791F23
:104650008A1F911DA11D6A0F711D811D911DA11D34
:1046600020D009F468943F912AE0269F1124301944
:10467000305D3193DEF6CF010895462F4770405DDF
:104680004193B3E00FD0C9F7F6CF462F4F70405D8E
:104690004A3318F0495D31FD4052419302D0A9F7E9
:1046A000EACFB4E0A6959795879577956795BA95E3
:1046B000C9F700976105710508959B01AC010A2EA9
:1046C00006945795479537952795BA95C9F7620F80
:0E46D000731F841F951FA01D0895F894FFCF3F
:1046DE00FFFFFFFF00E10000000000000000730676
:1046EE0080000A000B000D000C0005000400020003
:1046FE000300090008000E000F000600070001006D
:10470E00000000C1808100000000000000E1045C98
:10471E00040205F704480506052405000000004FB5
:10472E000722077E07F8061B070807F90662050D24
:10473E000A0050494420436F6E66696720457272C5
:10474E006F72004C4C204B6E6F622C200052482032
:10475E004B6E6F622C20004158204B6E6F622C20E6
:10476E00007C2C20002020202044656C6179205391
:10477E0065632C20002020202053746174652C204A
:10478E00004C4C2053657474696E672C20004C4CA1
:10479E00204D6F64652C20004C4C204F7574707545
:1047AE00742C200052482053657474696E672C2057
:1047BE0000524820526561642C20005248204F75EB
:1047CE00747075742C2000524820504944204F7547
:1047DE00742C20005248202D495361742C20005215
:1047EE0048202B495361742C200041582053657486
:1047FE002C20004158205374617475732C20004195
:10480E00582052656D61696E2C20004158204F75FD
:10481E00747075742C200020202020204275696C45
:10482E00642C2000252034752C2000537461727482
:10483E007570004E6F726D616C0041626E6F726DBD
:10484E00616C005248204661756C740025203973E6
:10485E002C2000252037752025252C2000202046D1
:10486E0061756C742C200020204E6F726D616C2C63
:10487E0020002520376C692025252C200025203688
:10488E006420252552482C20002520336420252520
:10489E0052482C2000252033642046616E20436F41
:1048AE006D6D616E642C20002520336420504944C8
:1048BE00204F75747075742C0025203364202D499B
:1048CE0053617420436F756E742C20002520336461
:1048DE00202B4953617420436F756E742C20002574
:1048EE0034692F25692C2000456E61626C65640069
:1048FE0044697361626C656400252034752025253A
:10490E002C200025203575207365632C2000312E58
:10491E00302E320025203130732C20004469736113
:10492E00626C696E672041582046616E20666F7218
:10493E0020257500456E61626C696E6720415820B6
:10494E0046616E20666F722025752073656300497F
:10495E006E697469616C697A696E67204170706CFA
:10496E0069636174696F6E2E2E2E0054696D696EC7
:10497E00672E2E2E00456E636F646572732E2E2E7B
:10498E00004169722045786368616E676520436FE8
:10499E006E74726F6C6C65722E2E2E0048756D697A
:1049AE006469747920436F6E74726F6C6C65722ECD
:1049BE002E2E00556E69742053746174652E2E2E42
:1049CE00004C6967687420436F6E74726F6C6C650F
:1049DE00722E2E2E00526563757272696E672054A8
:1049EE00696D6572732E2E2E004170706C69636155
:1049FE0074696F6E20496E697469616C697A61744D
:0E4A0E00696F6E20436F6D706C6574650000FB
:00000001FF
